{
  "contractName": "Escapable",
  "abi": [
    {
      "constant": false,
      "inputs": [],
      "name": "escapeHatch",
      "outputs": [],
      "payable": false,
      "stateMutability": "nonpayable",
      "type": "function"
    },
    {
      "constant": true,
      "inputs": [],
      "name": "escapeHatchCaller",
      "outputs": [
        {
          "name": "",
          "type": "address"
        }
      ],
      "payable": false,
      "stateMutability": "view",
      "type": "function"
    },
    {
      "constant": false,
      "inputs": [
        {
          "name": "_newEscapeHatchCaller",
          "type": "address"
        }
      ],
      "name": "changeEscapeCaller",
      "outputs": [],
      "payable": false,
      "stateMutability": "nonpayable",
      "type": "function"
    },
    {
      "constant": true,
      "inputs": [],
      "name": "owner",
      "outputs": [
        {
          "name": "",
          "type": "address"
        }
      ],
      "payable": false,
      "stateMutability": "view",
      "type": "function"
    },
    {
      "constant": false,
      "inputs": [
        {
          "name": "_newOwner",
          "type": "address"
        }
      ],
      "name": "changeOwner",
      "outputs": [],
      "payable": false,
      "stateMutability": "nonpayable",
      "type": "function"
    },
    {
      "constant": true,
      "inputs": [],
      "name": "escapeHatchDestination",
      "outputs": [
        {
          "name": "",
          "type": "address"
        }
      ],
      "payable": false,
      "stateMutability": "view",
      "type": "function"
    },
    {
      "inputs": [
        {
          "name": "_escapeHatchCaller",
          "type": "address"
        },
        {
          "name": "_escapeHatchDestination",
          "type": "address"
        }
      ],
      "payable": false,
      "stateMutability": "nonpayable",
      "type": "constructor"
    },
    {
      "anonymous": false,
      "inputs": [
        {
          "indexed": false,
          "name": "amount",
          "type": "uint256"
        }
      ],
      "name": "EscapeHatchCalled",
      "type": "event"
    },
    {
      "anonymous": false,
      "inputs": [
        {
          "indexed": true,
          "name": "oldOwner",
          "type": "address"
        },
        {
          "indexed": true,
          "name": "newOwner",
          "type": "address"
        }
      ],
      "name": "NewOwner",
      "type": "event"
    }
  ],
  "bytecode": "0x6060604052341561000f57600080fd5b60405160408061070583398101604052808051906020019091908051906020019091905050336000806101000a81548173ffffffffffffffffffffffffffffffffffffffff021916908373ffffffffffffffffffffffffffffffffffffffff16021790555081600160006101000a81548173ffffffffffffffffffffffffffffffffffffffff021916908373ffffffffffffffffffffffffffffffffffffffff16021790555080600260006101000a81548173ffffffffffffffffffffffffffffffffffffffff021916908373ffffffffffffffffffffffffffffffffffffffff16021790555050506105fe806101076000396000f300606060405260043610610078576000357c0100000000000000000000000000000000000000000000000000000000900463ffffffff1680631554611f1461007d5780631f6eb6e714610092578063681617c7146100e75780638da5cb5b14610120578063a6f9dae114610175578063f5b61230146101ae575b600080fd5b341561008857600080fd5b610090610203565b005b341561009d57600080fd5b6100a5610370565b604051808273ffffffffffffffffffffffffffffffffffffffff1673ffffffffffffffffffffffffffffffffffffffff16815260200191505060405180910390f35b34156100f257600080fd5b61011e600480803573ffffffffffffffffffffffffffffffffffffffff16906020019091905050610396565b005b341561012b57600080fd5b61013361048f565b604051808273ffffffffffffffffffffffffffffffffffffffff1673ffffffffffffffffffffffffffffffffffffffff16815260200191505060405180910390f35b341561018057600080fd5b6101ac600480803573ffffffffffffffffffffffffffffffffffffffff169060200190919050506104b4565b005b34156101b957600080fd5b6101c16105ac565b604051808273ffffffffffffffffffffffffffffffffffffffff1673ffffffffffffffffffffffffffffffffffffffff16815260200191505060405180910390f35b6000600160009054906101000a900473ffffffffffffffffffffffffffffffffffffffff1673ffffffffffffffffffffffffffffffffffffffff163373ffffffffffffffffffffffffffffffffffffffff16141580156102b057506000809054906101000a900473ffffffffffffffffffffffffffffffffffffffff1673ffffffffffffffffffffffffffffffffffffffff163373ffffffffffffffffffffffffffffffffffffffff1614155b156102ba57600080fd5b3073ffffffffffffffffffffffffffffffffffffffff16319050600260009054906101000a900473ffffffffffffffffffffffffffffffffffffffff1673ffffffffffffffffffffffffffffffffffffffff166108fc829081150290604051600060405180830381858888f19350505050151561033657600080fd5b7f3a7a1ba90aaa86fa9f6b921c3d600a5c870f8ebd05e7fbd30f93930f3caa5db5816040518082815260200191505060405180910390a150565b600160009054906101000a900473ffffffffffffffffffffffffffffffffffffffff1681565b600160009054906101000a900473ffffffffffffffffffffffffffffffffffffffff1673ffffffffffffffffffffffffffffffffffffffff163373ffffffffffffffffffffffffffffffffffffffff161415801561044157506000809054906101000a900473ffffffffffffffffffffffffffffffffffffffff1673ffffffffffffffffffffffffffffffffffffffff163373ffffffffffffffffffffffffffffffffffffffff1614155b1561044b57600080fd5b80600160006101000a81548173ffffffffffffffffffffffffffffffffffffffff021916908373ffffffffffffffffffffffffffffffffffffffff16021790555050565b6000809054906101000a900473ffffffffffffffffffffffffffffffffffffffff1681565b6000809054906101000a900473ffffffffffffffffffffffffffffffffffffffff1673ffffffffffffffffffffffffffffffffffffffff163373ffffffffffffffffffffffffffffffffffffffff1614151561050f57600080fd5b806000806101000a81548173ffffffffffffffffffffffffffffffffffffffff021916908373ffffffffffffffffffffffffffffffffffffffff1602179055508073ffffffffffffffffffffffffffffffffffffffff163373ffffffffffffffffffffffffffffffffffffffff167f70aea8d848e8a90fb7661b227dc522eb6395c3dac71b63cb59edd5c9899b236460405160405180910390a350565b600260009054906101000a900473ffffffffffffffffffffffffffffffffffffffff16815600a165627a7a72305820dd2a18a098b8d550e177de303cc1a239592784062c36dc6f92b8a35a040bea760029",
  "source": "pragma solidity ^0.4.6;\n\n\n/*\n    Copyright 2016, Jordi Baylina\n\n    This program is free software: you can redistribute it and/or modify\n    it under the terms of the GNU General Public License as published by\n    the Free Software Foundation, either version 3 of the License, or\n    (at your option) any later version.\n\n    This program is distributed in the hope that it will be useful,\n    but WITHOUT ANY WARRANTY; without even the implied warranty of\n    MERCHANTABILITY or FITNESS FOR A PARTICULAR PURPOSE.  See the\n    GNU General Public License for more details.\n\n    You should have received a copy of the GNU General Public License\n    along with this program.  If not, see <http://www.gnu.org/licenses/>.\n */\n\n/// @title Vault Contract\n/// @author Jordi Baylina\n/// @notice This contract holds funds for Campaigns and automates payments. For\n///  this iteration the funds will come straight from the Giveth Multisig as a\n///  safety precaution, but once fully tested and optimized this contract will\n///  be a safe place to store funds equipped with optional variable time delays\n///  to allow for an optional escape hatch\n\n/// @dev `Owned` is a base level contract that assigns an `owner` that can be\n///  later changed\ncontract Owned {\n    /// @dev `owner` is the only address that can call a function with this\n    /// modifier\n    modifier onlyOwner { if (msg.sender != owner) throw; _; }\n\n    address public owner;\n\n    /// @notice The Constructor assigns the message sender to be `owner`\n    function Owned() { owner = msg.sender;}\n\n    /// @notice `owner` can step down and assign some other address to this role\n    /// @param _newOwner The address of the new owner. 0x0 can be used to create\n    ///  an unowned neutral vault, however that cannot be undone\n    function changeOwner(address _newOwner) onlyOwner {\n        owner = _newOwner;\n        NewOwner(msg.sender, _newOwner);\n    }\n\n    event NewOwner(address indexed oldOwner, address indexed newOwner);\n}\n/// @dev `Escapable` is a base level contract built off of the `Owned`\n///  contract that creates an escape hatch function to send its ether to\n///  `escapeHatchDestination` when called by the `escapeHatchCaller` in the case that\n///  something unexpected happens\ncontract Escapable is Owned {\n    address public escapeHatchCaller;\n    address public escapeHatchDestination;\n\n    /// @notice The Constructor assigns the `escapeHatchDestination` and the\n    ///  `escapeHatchCaller`\n    /// @param _escapeHatchDestination The address of a safe location (usu a\n    ///  Multisig) to send the ether held in this contract\n    /// @param _escapeHatchCaller The address of a trusted account or contract to\n    ///  call `escapeHatch()` to send the ether in this contract to the\n    ///  `escapeHatchDestination` it would be ideal that `escapeHatchCaller` cannot move\n    ///  funds out of `escapeHatchDestination`\n    function Escapable(address _escapeHatchCaller, address _escapeHatchDestination) {\n        escapeHatchCaller = _escapeHatchCaller;\n        escapeHatchDestination = _escapeHatchDestination;\n    }\n\n    /// @dev The addresses preassigned the `escapeHatchCaller` role\n    ///  is the only addresses that can call a function with this modifier\n    modifier onlyEscapeHatchCallerOrOwner {\n        if ((msg.sender != escapeHatchCaller)&&(msg.sender != owner))\n            throw;\n        _;\n    }\n\n    /// @notice The `escapeHatch()` should only be called as a last resort if a\n    /// security issue is uncovered or something unexpected happened\n    function escapeHatch() onlyEscapeHatchCallerOrOwner {\n        uint total = this.balance;\n        // Send the total balance of this contract to the `escapeHatchDestination`\n        if (!escapeHatchDestination.send(total)) {\n            throw;\n        }\n        EscapeHatchCalled(total);\n    }\n    /// @notice Changes the address assigned to call `escapeHatch()`\n    /// @param _newEscapeHatchCaller The address of a trusted account or contract to\n    ///  call `escapeHatch()` to send the ether in this contract to the\n    ///  `escapeHatchDestination` it would be ideal that `escapeHatchCaller` cannot\n    ///  move funds out of `escapeHatchDestination`\n    function changeEscapeCaller(address _newEscapeHatchCaller) onlyEscapeHatchCallerOrOwner {\n        escapeHatchCaller = _newEscapeHatchCaller;\n    }\n\n    event EscapeHatchCalled(uint amount);\n}\n\n/// @dev `Vault` is a higher level contract built off of the `Escapable`\n///  contract that holds funds for Campaigns and automates payments.\ncontract Vault is Escapable {\n\n    /// @dev `Payment` is a public structure that describes the details of\n    ///  each payment making it easy to track the movement of funds\n    ///  transparently\n    struct Payment {\n        string name;     // What is the purpose of this payment\n        bytes32 reference;  // Reference of the payment.\n        address spender;        // Who is sending the funds\n        uint earliestPayTime;   // The earliest a payment can be made (Unix Time)\n        bool canceled;         // If True then the payment has been canceled\n        bool paid;              // If True then the payment has been paid\n        address recipient;      // Who is receiving the funds\n        uint amount;            // The amount of wei sent in the payment\n        uint securityGuardDelay;// The seconds `securityGuard` can delay payment\n    }\n\n    Payment[] public authorizedPayments;\n\n    address public securityGuard;\n    uint public absoluteMinTimeLock;\n    uint public timeLock;\n    uint public maxSecurityGuardDelay;\n\n    /// @dev The white list of approved addresses allowed to set up && receive\n    ///  payments from this vault\n    mapping (address => bool) public allowedSpenders;\n\n    /// @dev The address assigned the role of `securityGuard` is the only\n    ///  addresses that can call a function with this modifier\n    modifier onlySecurityGuard { if (msg.sender != securityGuard) throw; _; }\n\n    // @dev Events to make the payment movements easy to find on the blockchain\n    event PaymentAuthorized(uint indexed idPayment, address indexed recipient, uint amount);\n    event PaymentExecuted(uint indexed idPayment, address indexed recipient, uint amount);\n    event PaymentCanceled(uint indexed idPayment);\n    event EtherReceived(address indexed from, uint amount);\n    event SpenderAuthorization(address indexed spender, bool authorized);\n\n/////////\n// Constructor\n/////////\n\n    /// @notice The Constructor creates the Vault on the blockchain\n    /// @param _escapeHatchCaller The address of a trusted account or contract to\n    ///  call `escapeHatch()` to send the ether in this contract to the\n    ///  `escapeHatchDestination` it would be ideal if `escapeHatchCaller` cannot move\n    ///  funds out of `escapeHatchDestination`\n    /// @param _escapeHatchDestination The address of a safe location (usu a\n    ///  Multisig) to send the ether held in this contract in an emergency\n    /// @param _absoluteMinTimeLock The minimum number of seconds `timelock` can\n    ///  be set to, if set to 0 the `owner` can remove the `timeLock` completely\n    /// @param _timeLock Initial number of seconds that payments are delayed\n    ///  after they are authorized (a security precaution)\n    /// @param _securityGuard Address that will be able to delay the payments\n    ///  beyond the initial timelock requirements; can be set to 0x0 to remove\n    ///  the `securityGuard` functionality\n    /// @param _maxSecurityGuardDelay The maximum number of seconds in total\n    ///   that `securityGuard` can delay a payment so that the owner can cancel\n    ///   the payment if needed\n    function Vault(\n        address _escapeHatchCaller,\n        address _escapeHatchDestination,\n        uint _absoluteMinTimeLock,\n        uint _timeLock,\n        address _securityGuard,\n        uint _maxSecurityGuardDelay) Escapable(_escapeHatchCaller, _escapeHatchDestination)\n    {\n        absoluteMinTimeLock = _absoluteMinTimeLock;\n        timeLock = _timeLock;\n        securityGuard = _securityGuard;\n        maxSecurityGuardDelay = _maxSecurityGuardDelay;\n    }\n\n/////////\n// Helper functions\n/////////\n\n    /// @notice States the total number of authorized payments in this contract\n    /// @return The number of payments ever authorized even if they were canceled\n    function numberOfAuthorizedPayments() constant returns (uint) {\n        return authorizedPayments.length;\n    }\n\n//////\n// Receive Ether\n//////\n\n    /// @notice Called anytime ether is sent to the contract && creates an event\n    /// to more easily track the incoming transactions\n    function receiveEther() payable {\n        EtherReceived(msg.sender, msg.value);\n    }\n\n    /// @notice The fall back function is called whenever ether is sent to this\n    ///  contract\n    function () payable {\n        receiveEther();\n    }\n\n////////\n// Spender Interface\n////////\n\n    /// @notice only `allowedSpenders[]` Creates a new `Payment`\n    /// @param _name Brief description of the payment that is authorized\n    /// @param _reference External reference of the payment\n    /// @param _recipient Destination of the payment\n    /// @param _amount Amount to be paid in wei\n    /// @param _paymentDelay Number of seconds the payment is to be delayed, if\n    ///  this value is below `timeLock` then the `timeLock` determines the delay\n    /// @return The Payment ID number for the new authorized payment\n    function authorizePayment(\n        string _name,\n        bytes32 _reference,\n        address _recipient,\n        uint _amount,\n        uint _paymentDelay\n    ) returns(uint) {\n\n        // Fail if you arent on the `allowedSpenders` white list\n        if (!allowedSpenders[msg.sender] ) throw;\n        uint idPayment = authorizedPayments.length;       // Unique Payment ID\n        authorizedPayments.length++;\n\n        // The following lines fill out the payment struct\n        Payment p = authorizedPayments[idPayment];\n        p.spender = msg.sender;\n\n        // Overflow protection\n        if (_paymentDelay > 10**18) throw;\n\n        // Determines the earliest the recipient can receive payment (Unix time)\n        p.earliestPayTime = _paymentDelay >= timeLock ?\n                                now + _paymentDelay :\n                                now + timeLock;\n        p.recipient = _recipient;\n        p.amount = _amount;\n        p.name = _name;\n        p.reference = _reference;\n        PaymentAuthorized(idPayment, p.recipient, p.amount);\n        return idPayment;\n    }\n\n    /// @notice only `allowedSpenders[]` The recipient of a payment calls this\n    ///  function to send themselves the ether after the `earliestPayTime` has\n    ///  expired\n    /// @param _idPayment The payment ID to be executed\n    function collectAuthorizedPayment(uint _idPayment) {\n\n        // Check that the `_idPayment` has been added to the payments struct\n        if (_idPayment >= authorizedPayments.length) throw;\n\n        Payment p = authorizedPayments[_idPayment];\n\n        // Checking for reasons not to execute the payment\n        if (msg.sender != p.recipient) throw;\n        if (!allowedSpenders[p.spender]) throw;\n        if (now < p.earliestPayTime) throw;\n        if (p.canceled) throw;\n        if (p.paid) throw;\n        if (this.balance < p.amount) throw;\n\n        p.paid = true; // Set the payment to being paid\n        if (!p.recipient.send(p.amount)) {  // Make the payment\n            throw;\n        }\n        PaymentExecuted(_idPayment, p.recipient, p.amount);\n     }\n\n/////////\n// SecurityGuard Interface\n/////////\n\n    /// @notice `onlySecurityGuard` Delays a payment for a set number of seconds\n    /// @param _idPayment ID of the payment to be delayed\n    /// @param _delay The number of seconds to delay the payment\n    function delayPayment(uint _idPayment, uint _delay) onlySecurityGuard {\n        if (_idPayment >= authorizedPayments.length) throw;\n\n        // Overflow test\n        if (_delay > 10**18) throw;\n\n        Payment p = authorizedPayments[_idPayment];\n\n        if ((p.securityGuardDelay + _delay > maxSecurityGuardDelay) ||\n            (p.paid) ||\n            (p.canceled))\n            throw;\n\n        p.securityGuardDelay += _delay;\n        p.earliestPayTime += _delay;\n    }\n\n////////\n// Owner Interface\n///////\n\n    /// @notice `onlyOwner` Cancel a payment all together\n    /// @param _idPayment ID of the payment to be canceled.\n    function cancelPayment(uint _idPayment) onlyOwner {\n        if (_idPayment >= authorizedPayments.length) throw;\n\n        Payment p = authorizedPayments[_idPayment];\n\n\n        if (p.canceled) throw;\n        if (p.paid) throw;\n\n        p.canceled = true;\n        PaymentCanceled(_idPayment);\n    }\n\n    /// @notice `onlyOwner` Adds a spender to the `allowedSpenders[]` white list\n    /// @param _spender The address of the contract being authorized/unauthorized\n    /// @param _authorize `true` if authorizing and `false` if unauthorizing\n    function authorizeSpender(address _spender, bool _authorize) onlyOwner {\n        allowedSpenders[_spender] = _authorize;\n        SpenderAuthorization(_spender, _authorize);\n    }\n\n    /// @notice `onlyOwner` Sets the address of `securityGuard`\n    /// @param _newSecurityGuard Address of the new security guard\n    function setSecurityGuard(address _newSecurityGuard) onlyOwner {\n        securityGuard = _newSecurityGuard;\n    }\n\n    /// @notice `onlyOwner` Changes `timeLock`; the new `timeLock` cannot be\n    ///  lower than `absoluteMinTimeLock`\n    /// @param _newTimeLock Sets the new minimum default `timeLock` in seconds;\n    ///  pending payments maintain their `earliestPayTime`\n    function setTimelock(uint _newTimeLock) onlyOwner {\n        if (_newTimeLock < absoluteMinTimeLock) throw;\n        timeLock = _newTimeLock;\n    }\n\n    /// @notice `onlyOwner` Changes the maximum number of seconds\n    /// `securityGuard` can delay a payment\n    /// @param _maxSecurityGuardDelay The new maximum delay in seconds that\n    ///  `securityGuard` can delay the payment's execution in total\n    function setMaxSecurityGuardDelay(uint _maxSecurityGuardDelay) onlyOwner {\n        maxSecurityGuardDelay = _maxSecurityGuardDelay;\n    }\n}\n",
  "sourcePath": "/Users/kamescg/Documents/Projects/openSource/dex/code/contracts/Vault.sol",
  "compiler": {
    "name": "solc",
    "version": "0.4.18+commit.9cf6e910.Emscripten.clang"
  },
  "schemaVersion": "1.0.1",
  "updatedAt": "2018-01-15T04:18:14.720Z"
}