{
  "contractName": "Vault",
  "abi": [
    {
      "constant": true,
      "inputs": [],
      "name": "maxSecurityGuardDelay",
      "outputs": [
        {
          "name": "",
          "type": "uint256"
        }
      ],
      "payable": false,
      "stateMutability": "view",
      "type": "function"
    },
    {
      "constant": false,
      "inputs": [],
      "name": "escapeHatch",
      "outputs": [],
      "payable": false,
      "stateMutability": "nonpayable",
      "type": "function"
    },
    {
      "constant": false,
      "inputs": [
        {
          "name": "_newTimeLock",
          "type": "uint256"
        }
      ],
      "name": "setTimelock",
      "outputs": [],
      "payable": false,
      "stateMutability": "nonpayable",
      "type": "function"
    },
    {
      "constant": true,
      "inputs": [],
      "name": "escapeHatchCaller",
      "outputs": [
        {
          "name": "",
          "type": "address"
        }
      ],
      "payable": false,
      "stateMutability": "view",
      "type": "function"
    },
    {
      "constant": false,
      "inputs": [
        {
          "name": "_name",
          "type": "string"
        },
        {
          "name": "_reference",
          "type": "bytes32"
        },
        {
          "name": "_recipient",
          "type": "address"
        },
        {
          "name": "_amount",
          "type": "uint256"
        },
        {
          "name": "_paymentDelay",
          "type": "uint256"
        }
      ],
      "name": "authorizePayment",
      "outputs": [
        {
          "name": "",
          "type": "uint256"
        }
      ],
      "payable": false,
      "stateMutability": "nonpayable",
      "type": "function"
    },
    {
      "constant": false,
      "inputs": [
        {
          "name": "_newEscapeHatchCaller",
          "type": "address"
        }
      ],
      "name": "changeEscapeCaller",
      "outputs": [],
      "payable": false,
      "stateMutability": "nonpayable",
      "type": "function"
    },
    {
      "constant": true,
      "inputs": [],
      "name": "numberOfAuthorizedPayments",
      "outputs": [
        {
          "name": "",
          "type": "uint256"
        }
      ],
      "payable": false,
      "stateMutability": "view",
      "type": "function"
    },
    {
      "constant": false,
      "inputs": [
        {
          "name": "_spender",
          "type": "address"
        },
        {
          "name": "_authorize",
          "type": "bool"
        }
      ],
      "name": "authorizeSpender",
      "outputs": [],
      "payable": false,
      "stateMutability": "nonpayable",
      "type": "function"
    },
    {
      "constant": false,
      "inputs": [
        {
          "name": "_idPayment",
          "type": "uint256"
        }
      ],
      "name": "cancelPayment",
      "outputs": [],
      "payable": false,
      "stateMutability": "nonpayable",
      "type": "function"
    },
    {
      "constant": false,
      "inputs": [
        {
          "name": "_idPayment",
          "type": "uint256"
        },
        {
          "name": "_delay",
          "type": "uint256"
        }
      ],
      "name": "delayPayment",
      "outputs": [],
      "payable": false,
      "stateMutability": "nonpayable",
      "type": "function"
    },
    {
      "constant": true,
      "inputs": [],
      "name": "owner",
      "outputs": [
        {
          "name": "",
          "type": "address"
        }
      ],
      "payable": false,
      "stateMutability": "view",
      "type": "function"
    },
    {
      "constant": false,
      "inputs": [
        {
          "name": "_idPayment",
          "type": "uint256"
        }
      ],
      "name": "collectAuthorizedPayment",
      "outputs": [],
      "payable": false,
      "stateMutability": "nonpayable",
      "type": "function"
    },
    {
      "constant": true,
      "inputs": [
        {
          "name": "",
          "type": "uint256"
        }
      ],
      "name": "authorizedPayments",
      "outputs": [
        {
          "name": "name",
          "type": "string"
        },
        {
          "name": "reference",
          "type": "bytes32"
        },
        {
          "name": "spender",
          "type": "address"
        },
        {
          "name": "earliestPayTime",
          "type": "uint256"
        },
        {
          "name": "canceled",
          "type": "bool"
        },
        {
          "name": "paid",
          "type": "bool"
        },
        {
          "name": "recipient",
          "type": "address"
        },
        {
          "name": "amount",
          "type": "uint256"
        },
        {
          "name": "securityGuardDelay",
          "type": "uint256"
        }
      ],
      "payable": false,
      "stateMutability": "view",
      "type": "function"
    },
    {
      "constant": false,
      "inputs": [],
      "name": "receiveEther",
      "outputs": [],
      "payable": true,
      "stateMutability": "payable",
      "type": "function"
    },
    {
      "constant": false,
      "inputs": [
        {
          "name": "_newOwner",
          "type": "address"
        }
      ],
      "name": "changeOwner",
      "outputs": [],
      "payable": false,
      "stateMutability": "nonpayable",
      "type": "function"
    },
    {
      "constant": true,
      "inputs": [],
      "name": "securityGuard",
      "outputs": [
        {
          "name": "",
          "type": "address"
        }
      ],
      "payable": false,
      "stateMutability": "view",
      "type": "function"
    },
    {
      "constant": false,
      "inputs": [
        {
          "name": "_newSecurityGuard",
          "type": "address"
        }
      ],
      "name": "setSecurityGuard",
      "outputs": [],
      "payable": false,
      "stateMutability": "nonpayable",
      "type": "function"
    },
    {
      "constant": true,
      "inputs": [],
      "name": "timeLock",
      "outputs": [
        {
          "name": "",
          "type": "uint256"
        }
      ],
      "payable": false,
      "stateMutability": "view",
      "type": "function"
    },
    {
      "constant": true,
      "inputs": [
        {
          "name": "",
          "type": "address"
        }
      ],
      "name": "allowedSpenders",
      "outputs": [
        {
          "name": "",
          "type": "bool"
        }
      ],
      "payable": false,
      "stateMutability": "view",
      "type": "function"
    },
    {
      "constant": false,
      "inputs": [
        {
          "name": "_maxSecurityGuardDelay",
          "type": "uint256"
        }
      ],
      "name": "setMaxSecurityGuardDelay",
      "outputs": [],
      "payable": false,
      "stateMutability": "nonpayable",
      "type": "function"
    },
    {
      "constant": true,
      "inputs": [],
      "name": "absoluteMinTimeLock",
      "outputs": [
        {
          "name": "",
          "type": "uint256"
        }
      ],
      "payable": false,
      "stateMutability": "view",
      "type": "function"
    },
    {
      "constant": true,
      "inputs": [],
      "name": "escapeHatchDestination",
      "outputs": [
        {
          "name": "",
          "type": "address"
        }
      ],
      "payable": false,
      "stateMutability": "view",
      "type": "function"
    },
    {
      "inputs": [
        {
          "name": "_escapeHatchCaller",
          "type": "address"
        },
        {
          "name": "_escapeHatchDestination",
          "type": "address"
        },
        {
          "name": "_absoluteMinTimeLock",
          "type": "uint256"
        },
        {
          "name": "_timeLock",
          "type": "uint256"
        },
        {
          "name": "_securityGuard",
          "type": "address"
        },
        {
          "name": "_maxSecurityGuardDelay",
          "type": "uint256"
        }
      ],
      "payable": false,
      "stateMutability": "nonpayable",
      "type": "constructor"
    },
    {
      "payable": true,
      "stateMutability": "payable",
      "type": "fallback"
    },
    {
      "anonymous": false,
      "inputs": [
        {
          "indexed": true,
          "name": "idPayment",
          "type": "uint256"
        },
        {
          "indexed": true,
          "name": "recipient",
          "type": "address"
        },
        {
          "indexed": false,
          "name": "amount",
          "type": "uint256"
        }
      ],
      "name": "PaymentAuthorized",
      "type": "event"
    },
    {
      "anonymous": false,
      "inputs": [
        {
          "indexed": true,
          "name": "idPayment",
          "type": "uint256"
        },
        {
          "indexed": true,
          "name": "recipient",
          "type": "address"
        },
        {
          "indexed": false,
          "name": "amount",
          "type": "uint256"
        }
      ],
      "name": "PaymentExecuted",
      "type": "event"
    },
    {
      "anonymous": false,
      "inputs": [
        {
          "indexed": true,
          "name": "idPayment",
          "type": "uint256"
        }
      ],
      "name": "PaymentCanceled",
      "type": "event"
    },
    {
      "anonymous": false,
      "inputs": [
        {
          "indexed": true,
          "name": "from",
          "type": "address"
        },
        {
          "indexed": false,
          "name": "amount",
          "type": "uint256"
        }
      ],
      "name": "EtherReceived",
      "type": "event"
    },
    {
      "anonymous": false,
      "inputs": [
        {
          "indexed": true,
          "name": "spender",
          "type": "address"
        },
        {
          "indexed": false,
          "name": "authorized",
          "type": "bool"
        }
      ],
      "name": "SpenderAuthorization",
      "type": "event"
    },
    {
      "anonymous": false,
      "inputs": [
        {
          "indexed": false,
          "name": "amount",
          "type": "uint256"
        }
      ],
      "name": "EscapeHatchCalled",
      "type": "event"
    },
    {
      "anonymous": false,
      "inputs": [
        {
          "indexed": true,
          "name": "oldOwner",
          "type": "address"
        },
        {
          "indexed": true,
          "name": "newOwner",
          "type": "address"
        }
      ],
      "name": "NewOwner",
      "type": "event"
    }
  ],
  "bytecode": "0x6060604052341561000f57600080fd5b60405160c08061194d833981016040528080519060200190919080519060200190919080519060200190919080519060200190919080519060200190919080519060200190919050508585336000806101000a81548173ffffffffffffffffffffffffffffffffffffffff021916908373ffffffffffffffffffffffffffffffffffffffff16021790555081600160006101000a81548173ffffffffffffffffffffffffffffffffffffffff021916908373ffffffffffffffffffffffffffffffffffffffff16021790555080600260006101000a81548173ffffffffffffffffffffffffffffffffffffffff021916908373ffffffffffffffffffffffffffffffffffffffff1602179055505050836005819055508260068190555081600460006101000a81548173ffffffffffffffffffffffffffffffffffffffff021916908373ffffffffffffffffffffffffffffffffffffffff160217905550806007819055505050505050506117c4806101896000396000f300606060405260043610610128576000357c0100000000000000000000000000000000000000000000000000000000900463ffffffff1680630b2e7423146101325780631554611f1461015b5780631e891c0a146101705780631f6eb6e71461019357806320ea2533146101e8578063681617c71461029757806368b8c5a1146102d0578063793c0fd4146102f95780638422927d1461033d578063846a5dde146103605780638da5cb5b1461038c57806392e4b8a4146103e1578063a0927a6a14610404578063a3912ec81461055d578063a6f9dae114610567578063b2ca3ec4146105a0578063bb2a51d1146105f5578063d085835a1461062e578063d8528af014610657578063da4793ac146106a8578063ea8a66c7146106cb578063f5b61230146106f4575b610130610749565b005b341561013d57600080fd5b610145610799565b6040518082815260200191505060405180910390f35b341561016657600080fd5b61016e61079f565b005b341561017b57600080fd5b610191600480803590602001909190505061090c565b005b341561019e57600080fd5b6101a6610980565b604051808273ffffffffffffffffffffffffffffffffffffffff1673ffffffffffffffffffffffffffffffffffffffff16815260200191505060405180910390f35b34156101f357600080fd5b610281600480803590602001908201803590602001908080601f016020809104026020016040519081016040528093929190818152602001838380828437820191505050505050919080356000191690602001909190803573ffffffffffffffffffffffffffffffffffffffff169060200190919080359060200190919080359060200190919050506109a6565b6040518082815260200191505060405180910390f35b34156102a257600080fd5b6102ce600480803573ffffffffffffffffffffffffffffffffffffffff16906020019091905050610bae565b005b34156102db57600080fd5b6102e3610ca7565b6040518082815260200191505060405180910390f35b341561030457600080fd5b61033b600480803573ffffffffffffffffffffffffffffffffffffffff169060200190919080351515906020019091905050610cb4565b005b341561034857600080fd5b61035e6004808035906020019091905050610dbc565b005b341561036b57600080fd5b61038a6004808035906020019091908035906020019091905050610ed1565b005b341561039757600080fd5b61039f610fe6565b604051808273ffffffffffffffffffffffffffffffffffffffff1673ffffffffffffffffffffffffffffffffffffffff16815260200191505060405180910390f35b34156103ec57600080fd5b610402600480803590602001909190505061100b565b005b341561040f57600080fd5b610425600480803590602001909190505061128a565b60405180806020018a600019166000191681526020018973ffffffffffffffffffffffffffffffffffffffff1673ffffffffffffffffffffffffffffffffffffffff16815260200188815260200187151515158152602001861515151581526020018573ffffffffffffffffffffffffffffffffffffffff1673ffffffffffffffffffffffffffffffffffffffff16815260200184815260200183815260200182810382528b8181546001816001161561010002031660029004815260200191508054600181600116156101000203166002900480156105465780601f1061051b57610100808354040283529160200191610546565b820191906000526020600020905b81548152906001019060200180831161052957829003601f168201915b50509a505050505050505050505060405180910390f35b610565610749565b005b341561057257600080fd5b61059e600480803573ffffffffffffffffffffffffffffffffffffffff16906020019091905050611340565b005b34156105ab57600080fd5b6105b3611438565b604051808273ffffffffffffffffffffffffffffffffffffffff1673ffffffffffffffffffffffffffffffffffffffff16815260200191505060405180910390f35b341561060057600080fd5b61062c600480803573ffffffffffffffffffffffffffffffffffffffff1690602001909190505061145e565b005b341561063957600080fd5b6106416114fd565b6040518082815260200191505060405180910390f35b341561066257600080fd5b61068e600480803573ffffffffffffffffffffffffffffffffffffffff16906020019091905050611503565b604051808215151515815260200191505060405180910390f35b34156106b357600080fd5b6106c96004808035906020019091905050611523565b005b34156106d657600080fd5b6106de611588565b6040518082815260200191505060405180910390f35b34156106ff57600080fd5b61070761158e565b604051808273ffffffffffffffffffffffffffffffffffffffff1673ffffffffffffffffffffffffffffffffffffffff16815260200191505060405180910390f35b3373ffffffffffffffffffffffffffffffffffffffff167f1e57e3bb474320be3d2c77138f75b7c3941292d647f5f9634e33a8e94e0e069b346040518082815260200191505060405180910390a2565b60075481565b6000600160009054906101000a900473ffffffffffffffffffffffffffffffffffffffff1673ffffffffffffffffffffffffffffffffffffffff163373ffffffffffffffffffffffffffffffffffffffff161415801561084c57506000809054906101000a900473ffffffffffffffffffffffffffffffffffffffff1673ffffffffffffffffffffffffffffffffffffffff163373ffffffffffffffffffffffffffffffffffffffff1614155b1561085657600080fd5b3073ffffffffffffffffffffffffffffffffffffffff16319050600260009054906101000a900473ffffffffffffffffffffffffffffffffffffffff1673ffffffffffffffffffffffffffffffffffffffff166108fc829081150290604051600060405180830381858888f1935050505015156108d257600080fd5b7f3a7a1ba90aaa86fa9f6b921c3d600a5c870f8ebd05e7fbd30f93930f3caa5db5816040518082815260200191505060405180910390a150565b6000809054906101000a900473ffffffffffffffffffffffffffffffffffffffff1673ffffffffffffffffffffffffffffffffffffffff163373ffffffffffffffffffffffffffffffffffffffff1614151561096757600080fd5b60055481101561097657600080fd5b8060068190555050565b600160009054906101000a900473ffffffffffffffffffffffffffffffffffffffff1681565b6000806000600860003373ffffffffffffffffffffffffffffffffffffffff1673ffffffffffffffffffffffffffffffffffffffff16815260200190815260200160002060009054906101000a900460ff161515610a0357600080fd5b600380549050915060038054809190600101610a1f91906115b4565b50600382815481101515610a2f57fe5b90600052602060002090600702019050338160020160006101000a81548173ffffffffffffffffffffffffffffffffffffffff021916908373ffffffffffffffffffffffffffffffffffffffff160217905550670de0b6b3a7640000841115610a9757600080fd5b600654841015610aab576006544201610aaf565b8342015b8160030181905550858160040160026101000a81548173ffffffffffffffffffffffffffffffffffffffff021916908373ffffffffffffffffffffffffffffffffffffffff16021790555084816005018190555087816000019080519060200190610b1b9291906115e6565b50868160010181600019169055508060040160029054906101000a900473ffffffffffffffffffffffffffffffffffffffff1673ffffffffffffffffffffffffffffffffffffffff16827f47e9633c99dd05fabd1b937e7c85f9e00d6866bfd2e5885e0091f40a173be3d383600501546040518082815260200191505060405180910390a3819250505095945050505050565b600160009054906101000a900473ffffffffffffffffffffffffffffffffffffffff1673ffffffffffffffffffffffffffffffffffffffff163373ffffffffffffffffffffffffffffffffffffffff1614158015610c5957506000809054906101000a900473ffffffffffffffffffffffffffffffffffffffff1673ffffffffffffffffffffffffffffffffffffffff163373ffffffffffffffffffffffffffffffffffffffff1614155b15610c6357600080fd5b80600160006101000a81548173ffffffffffffffffffffffffffffffffffffffff021916908373ffffffffffffffffffffffffffffffffffffffff16021790555050565b6000600380549050905090565b6000809054906101000a900473ffffffffffffffffffffffffffffffffffffffff1673ffffffffffffffffffffffffffffffffffffffff163373ffffffffffffffffffffffffffffffffffffffff16141515610d0f57600080fd5b80600860008473ffffffffffffffffffffffffffffffffffffffff1673ffffffffffffffffffffffffffffffffffffffff16815260200190815260200160002060006101000a81548160ff0219169083151502179055508173ffffffffffffffffffffffffffffffffffffffff167f801f568efbc3346a6ae3d0c3eb335a30d64e0d3cf08f1c39626d62cd5c82728182604051808215151515815260200191505060405180910390a25050565b60008060009054906101000a900473ffffffffffffffffffffffffffffffffffffffff1673ffffffffffffffffffffffffffffffffffffffff163373ffffffffffffffffffffffffffffffffffffffff16141515610e1957600080fd5b60038054905082101515610e2c57600080fd5b600382815481101515610e3b57fe5b906000526020600020906007020190508060040160009054906101000a900460ff1615610e6757600080fd5b8060040160019054906101000a900460ff1615610e8357600080fd5b60018160040160006101000a81548160ff021916908315150217905550817ffdf197ed54809861dafe0b4d391843652730ac67274c1e9e46db7687dccaa30160405160405180910390a25050565b6000600460009054906101000a900473ffffffffffffffffffffffffffffffffffffffff1673ffffffffffffffffffffffffffffffffffffffff163373ffffffffffffffffffffffffffffffffffffffff16141515610f2f57600080fd5b60038054905083101515610f4257600080fd5b670de0b6b3a7640000821115610f5757600080fd5b600383815481101515610f6657fe5b90600052602060002090600702019050600754828260060154011180610f9a57508060040160019054906101000a900460ff165b80610fb357508060040160009054906101000a900460ff165b15610fbd57600080fd5b818160060160008282540192505081905550818160030160008282540192505081905550505050565b6000809054906101000a900473ffffffffffffffffffffffffffffffffffffffff1681565b60006003805490508210151561102057600080fd5b60038281548110151561102f57fe5b906000526020600020906007020190508060040160029054906101000a900473ffffffffffffffffffffffffffffffffffffffff1673ffffffffffffffffffffffffffffffffffffffff163373ffffffffffffffffffffffffffffffffffffffff1614151561109d57600080fd5b600860008260020160009054906101000a900473ffffffffffffffffffffffffffffffffffffffff1673ffffffffffffffffffffffffffffffffffffffff1673ffffffffffffffffffffffffffffffffffffffff16815260200190815260200160002060009054906101000a900460ff16151561111957600080fd5b806003015442101561112a57600080fd5b8060040160009054906101000a900460ff161561114657600080fd5b8060040160019054906101000a900460ff161561116257600080fd5b80600501543073ffffffffffffffffffffffffffffffffffffffff1631101561118a57600080fd5b60018160040160016101000a81548160ff0219169083151502179055508060040160029054906101000a900473ffffffffffffffffffffffffffffffffffffffff1673ffffffffffffffffffffffffffffffffffffffff166108fc82600501549081150290604051600060405180830381858888f19350505050151561120f57600080fd5b8060040160029054906101000a900473ffffffffffffffffffffffffffffffffffffffff1673ffffffffffffffffffffffffffffffffffffffff16827f7f5bfe3018715b26a7067888a5c42912fbb3485170b8154ea9a448661f2f0de283600501546040518082815260200191505060405180910390a35050565b60038181548110151561129957fe5b906000526020600020906007020160009150905080600001908060010154908060020160009054906101000a900473ffffffffffffffffffffffffffffffffffffffff16908060030154908060040160009054906101000a900460ff16908060040160019054906101000a900460ff16908060040160029054906101000a900473ffffffffffffffffffffffffffffffffffffffff16908060050154908060060154905089565b6000809054906101000a900473ffffffffffffffffffffffffffffffffffffffff1673ffffffffffffffffffffffffffffffffffffffff163373ffffffffffffffffffffffffffffffffffffffff1614151561139b57600080fd5b806000806101000a81548173ffffffffffffffffffffffffffffffffffffffff021916908373ffffffffffffffffffffffffffffffffffffffff1602179055508073ffffffffffffffffffffffffffffffffffffffff163373ffffffffffffffffffffffffffffffffffffffff167f70aea8d848e8a90fb7661b227dc522eb6395c3dac71b63cb59edd5c9899b236460405160405180910390a350565b600460009054906101000a900473ffffffffffffffffffffffffffffffffffffffff1681565b6000809054906101000a900473ffffffffffffffffffffffffffffffffffffffff1673ffffffffffffffffffffffffffffffffffffffff163373ffffffffffffffffffffffffffffffffffffffff161415156114b957600080fd5b80600460006101000a81548173ffffffffffffffffffffffffffffffffffffffff021916908373ffffffffffffffffffffffffffffffffffffffff16021790555050565b60065481565b60086020528060005260406000206000915054906101000a900460ff1681565b6000809054906101000a900473ffffffffffffffffffffffffffffffffffffffff1673ffffffffffffffffffffffffffffffffffffffff163373ffffffffffffffffffffffffffffffffffffffff1614151561157e57600080fd5b8060078190555050565b60055481565b600260009054906101000a900473ffffffffffffffffffffffffffffffffffffffff1681565b8154818355818115116115e1576007028160070283600052602060002091820191016115e09190611666565b5b505050565b828054600181600116156101000203166002900490600052602060002090601f016020900481019282601f1061162757805160ff1916838001178555611655565b82800160010185558215611655579182015b82811115611654578251825591602001919060010190611639565b5b509050611662919061172b565b5090565b61172891905b8082111561172457600080820160006116859190611750565b60018201600090556002820160006101000a81549073ffffffffffffffffffffffffffffffffffffffff021916905560038201600090556004820160006101000a81549060ff02191690556004820160016101000a81549060ff02191690556004820160026101000a81549073ffffffffffffffffffffffffffffffffffffffff0219169055600582016000905560068201600090555060070161166c565b5090565b90565b61174d91905b80821115611749576000816000905550600101611731565b5090565b90565b50805460018160011615610100020316600290046000825580601f106117765750611795565b601f016020900490600052602060002090810190611794919061172b565b5b505600a165627a7a72305820db8d4a03baca95035f41ba987d9152b5272a8f3dcd5eb7a428a77106efb214380029",
  "source": "pragma solidity ^0.4.6;\n\n\n/*\n    Copyright 2016, Jordi Baylina\n\n    This program is free software: you can redistribute it and/or modify\n    it under the terms of the GNU General Public License as published by\n    the Free Software Foundation, either version 3 of the License, or\n    (at your option) any later version.\n\n    This program is distributed in the hope that it will be useful,\n    but WITHOUT ANY WARRANTY; without even the implied warranty of\n    MERCHANTABILITY or FITNESS FOR A PARTICULAR PURPOSE.  See the\n    GNU General Public License for more details.\n\n    You should have received a copy of the GNU General Public License\n    along with this program.  If not, see <http://www.gnu.org/licenses/>.\n */\n\n/// @title Vault Contract\n/// @author Jordi Baylina\n/// @notice This contract holds funds for Campaigns and automates payments. For\n///  this iteration the funds will come straight from the Giveth Multisig as a\n///  safety precaution, but once fully tested and optimized this contract will\n///  be a safe place to store funds equipped with optional variable time delays\n///  to allow for an optional escape hatch\n\n/// @dev `Owned` is a base level contract that assigns an `owner` that can be\n///  later changed\ncontract Owned {\n    /// @dev `owner` is the only address that can call a function with this\n    /// modifier\n    modifier onlyOwner { if (msg.sender != owner) throw; _; }\n\n    address public owner;\n\n    /// @notice The Constructor assigns the message sender to be `owner`\n    function Owned() { owner = msg.sender;}\n\n    /// @notice `owner` can step down and assign some other address to this role\n    /// @param _newOwner The address of the new owner. 0x0 can be used to create\n    ///  an unowned neutral vault, however that cannot be undone\n    function changeOwner(address _newOwner) onlyOwner {\n        owner = _newOwner;\n        NewOwner(msg.sender, _newOwner);\n    }\n\n    event NewOwner(address indexed oldOwner, address indexed newOwner);\n}\n/// @dev `Escapable` is a base level contract built off of the `Owned`\n///  contract that creates an escape hatch function to send its ether to\n///  `escapeHatchDestination` when called by the `escapeHatchCaller` in the case that\n///  something unexpected happens\ncontract Escapable is Owned {\n    address public escapeHatchCaller;\n    address public escapeHatchDestination;\n\n    /// @notice The Constructor assigns the `escapeHatchDestination` and the\n    ///  `escapeHatchCaller`\n    /// @param _escapeHatchDestination The address of a safe location (usu a\n    ///  Multisig) to send the ether held in this contract\n    /// @param _escapeHatchCaller The address of a trusted account or contract to\n    ///  call `escapeHatch()` to send the ether in this contract to the\n    ///  `escapeHatchDestination` it would be ideal that `escapeHatchCaller` cannot move\n    ///  funds out of `escapeHatchDestination`\n    function Escapable(address _escapeHatchCaller, address _escapeHatchDestination) {\n        escapeHatchCaller = _escapeHatchCaller;\n        escapeHatchDestination = _escapeHatchDestination;\n    }\n\n    /// @dev The addresses preassigned the `escapeHatchCaller` role\n    ///  is the only addresses that can call a function with this modifier\n    modifier onlyEscapeHatchCallerOrOwner {\n        if ((msg.sender != escapeHatchCaller)&&(msg.sender != owner))\n            throw;\n        _;\n    }\n\n    /// @notice The `escapeHatch()` should only be called as a last resort if a\n    /// security issue is uncovered or something unexpected happened\n    function escapeHatch() onlyEscapeHatchCallerOrOwner {\n        uint total = this.balance;\n        // Send the total balance of this contract to the `escapeHatchDestination`\n        if (!escapeHatchDestination.send(total)) {\n            throw;\n        }\n        EscapeHatchCalled(total);\n    }\n    /// @notice Changes the address assigned to call `escapeHatch()`\n    /// @param _newEscapeHatchCaller The address of a trusted account or contract to\n    ///  call `escapeHatch()` to send the ether in this contract to the\n    ///  `escapeHatchDestination` it would be ideal that `escapeHatchCaller` cannot\n    ///  move funds out of `escapeHatchDestination`\n    function changeEscapeCaller(address _newEscapeHatchCaller) onlyEscapeHatchCallerOrOwner {\n        escapeHatchCaller = _newEscapeHatchCaller;\n    }\n\n    event EscapeHatchCalled(uint amount);\n}\n\n/// @dev `Vault` is a higher level contract built off of the `Escapable`\n///  contract that holds funds for Campaigns and automates payments.\ncontract Vault is Escapable {\n\n    /// @dev `Payment` is a public structure that describes the details of\n    ///  each payment making it easy to track the movement of funds\n    ///  transparently\n    struct Payment {\n        string name;     // What is the purpose of this payment\n        bytes32 reference;  // Reference of the payment.\n        address spender;        // Who is sending the funds\n        uint earliestPayTime;   // The earliest a payment can be made (Unix Time)\n        bool canceled;         // If True then the payment has been canceled\n        bool paid;              // If True then the payment has been paid\n        address recipient;      // Who is receiving the funds\n        uint amount;            // The amount of wei sent in the payment\n        uint securityGuardDelay;// The seconds `securityGuard` can delay payment\n    }\n\n    Payment[] public authorizedPayments;\n\n    address public securityGuard;\n    uint public absoluteMinTimeLock;\n    uint public timeLock;\n    uint public maxSecurityGuardDelay;\n\n    /// @dev The white list of approved addresses allowed to set up && receive\n    ///  payments from this vault\n    mapping (address => bool) public allowedSpenders;\n\n    /// @dev The address assigned the role of `securityGuard` is the only\n    ///  addresses that can call a function with this modifier\n    modifier onlySecurityGuard { if (msg.sender != securityGuard) throw; _; }\n\n    // @dev Events to make the payment movements easy to find on the blockchain\n    event PaymentAuthorized(uint indexed idPayment, address indexed recipient, uint amount);\n    event PaymentExecuted(uint indexed idPayment, address indexed recipient, uint amount);\n    event PaymentCanceled(uint indexed idPayment);\n    event EtherReceived(address indexed from, uint amount);\n    event SpenderAuthorization(address indexed spender, bool authorized);\n\n/////////\n// Constructor\n/////////\n\n    /// @notice The Constructor creates the Vault on the blockchain\n    /// @param _escapeHatchCaller The address of a trusted account or contract to\n    ///  call `escapeHatch()` to send the ether in this contract to the\n    ///  `escapeHatchDestination` it would be ideal if `escapeHatchCaller` cannot move\n    ///  funds out of `escapeHatchDestination`\n    /// @param _escapeHatchDestination The address of a safe location (usu a\n    ///  Multisig) to send the ether held in this contract in an emergency\n    /// @param _absoluteMinTimeLock The minimum number of seconds `timelock` can\n    ///  be set to, if set to 0 the `owner` can remove the `timeLock` completely\n    /// @param _timeLock Initial number of seconds that payments are delayed\n    ///  after they are authorized (a security precaution)\n    /// @param _securityGuard Address that will be able to delay the payments\n    ///  beyond the initial timelock requirements; can be set to 0x0 to remove\n    ///  the `securityGuard` functionality\n    /// @param _maxSecurityGuardDelay The maximum number of seconds in total\n    ///   that `securityGuard` can delay a payment so that the owner can cancel\n    ///   the payment if needed\n    function Vault(\n        address _escapeHatchCaller,\n        address _escapeHatchDestination,\n        uint _absoluteMinTimeLock,\n        uint _timeLock,\n        address _securityGuard,\n        uint _maxSecurityGuardDelay) Escapable(_escapeHatchCaller, _escapeHatchDestination)\n    {\n        absoluteMinTimeLock = _absoluteMinTimeLock;\n        timeLock = _timeLock;\n        securityGuard = _securityGuard;\n        maxSecurityGuardDelay = _maxSecurityGuardDelay;\n    }\n\n/////////\n// Helper functions\n/////////\n\n    /// @notice States the total number of authorized payments in this contract\n    /// @return The number of payments ever authorized even if they were canceled\n    function numberOfAuthorizedPayments() constant returns (uint) {\n        return authorizedPayments.length;\n    }\n\n//////\n// Receive Ether\n//////\n\n    /// @notice Called anytime ether is sent to the contract && creates an event\n    /// to more easily track the incoming transactions\n    function receiveEther() payable {\n        EtherReceived(msg.sender, msg.value);\n    }\n\n    /// @notice The fall back function is called whenever ether is sent to this\n    ///  contract\n    function () payable {\n        receiveEther();\n    }\n\n////////\n// Spender Interface\n////////\n\n    /// @notice only `allowedSpenders[]` Creates a new `Payment`\n    /// @param _name Brief description of the payment that is authorized\n    /// @param _reference External reference of the payment\n    /// @param _recipient Destination of the payment\n    /// @param _amount Amount to be paid in wei\n    /// @param _paymentDelay Number of seconds the payment is to be delayed, if\n    ///  this value is below `timeLock` then the `timeLock` determines the delay\n    /// @return The Payment ID number for the new authorized payment\n    function authorizePayment(\n        string _name,\n        bytes32 _reference,\n        address _recipient,\n        uint _amount,\n        uint _paymentDelay\n    ) returns(uint) {\n\n        // Fail if you arent on the `allowedSpenders` white list\n        if (!allowedSpenders[msg.sender] ) throw;\n        uint idPayment = authorizedPayments.length;       // Unique Payment ID\n        authorizedPayments.length++;\n\n        // The following lines fill out the payment struct\n        Payment p = authorizedPayments[idPayment];\n        p.spender = msg.sender;\n\n        // Overflow protection\n        if (_paymentDelay > 10**18) throw;\n\n        // Determines the earliest the recipient can receive payment (Unix time)\n        p.earliestPayTime = _paymentDelay >= timeLock ?\n                                now + _paymentDelay :\n                                now + timeLock;\n        p.recipient = _recipient;\n        p.amount = _amount;\n        p.name = _name;\n        p.reference = _reference;\n        PaymentAuthorized(idPayment, p.recipient, p.amount);\n        return idPayment;\n    }\n\n    /// @notice only `allowedSpenders[]` The recipient of a payment calls this\n    ///  function to send themselves the ether after the `earliestPayTime` has\n    ///  expired\n    /// @param _idPayment The payment ID to be executed\n    function collectAuthorizedPayment(uint _idPayment) {\n\n        // Check that the `_idPayment` has been added to the payments struct\n        if (_idPayment >= authorizedPayments.length) throw;\n\n        Payment p = authorizedPayments[_idPayment];\n\n        // Checking for reasons not to execute the payment\n        if (msg.sender != p.recipient) throw;\n        if (!allowedSpenders[p.spender]) throw;\n        if (now < p.earliestPayTime) throw;\n        if (p.canceled) throw;\n        if (p.paid) throw;\n        if (this.balance < p.amount) throw;\n\n        p.paid = true; // Set the payment to being paid\n        if (!p.recipient.send(p.amount)) {  // Make the payment\n            throw;\n        }\n        PaymentExecuted(_idPayment, p.recipient, p.amount);\n     }\n\n/////////\n// SecurityGuard Interface\n/////////\n\n    /// @notice `onlySecurityGuard` Delays a payment for a set number of seconds\n    /// @param _idPayment ID of the payment to be delayed\n    /// @param _delay The number of seconds to delay the payment\n    function delayPayment(uint _idPayment, uint _delay) onlySecurityGuard {\n        if (_idPayment >= authorizedPayments.length) throw;\n\n        // Overflow test\n        if (_delay > 10**18) throw;\n\n        Payment p = authorizedPayments[_idPayment];\n\n        if ((p.securityGuardDelay + _delay > maxSecurityGuardDelay) ||\n            (p.paid) ||\n            (p.canceled))\n            throw;\n\n        p.securityGuardDelay += _delay;\n        p.earliestPayTime += _delay;\n    }\n\n////////\n// Owner Interface\n///////\n\n    /// @notice `onlyOwner` Cancel a payment all together\n    /// @param _idPayment ID of the payment to be canceled.\n    function cancelPayment(uint _idPayment) onlyOwner {\n        if (_idPayment >= authorizedPayments.length) throw;\n\n        Payment p = authorizedPayments[_idPayment];\n\n\n        if (p.canceled) throw;\n        if (p.paid) throw;\n\n        p.canceled = true;\n        PaymentCanceled(_idPayment);\n    }\n\n    /// @notice `onlyOwner` Adds a spender to the `allowedSpenders[]` white list\n    /// @param _spender The address of the contract being authorized/unauthorized\n    /// @param _authorize `true` if authorizing and `false` if unauthorizing\n    function authorizeSpender(address _spender, bool _authorize) onlyOwner {\n        allowedSpenders[_spender] = _authorize;\n        SpenderAuthorization(_spender, _authorize);\n    }\n\n    /// @notice `onlyOwner` Sets the address of `securityGuard`\n    /// @param _newSecurityGuard Address of the new security guard\n    function setSecurityGuard(address _newSecurityGuard) onlyOwner {\n        securityGuard = _newSecurityGuard;\n    }\n\n    /// @notice `onlyOwner` Changes `timeLock`; the new `timeLock` cannot be\n    ///  lower than `absoluteMinTimeLock`\n    /// @param _newTimeLock Sets the new minimum default `timeLock` in seconds;\n    ///  pending payments maintain their `earliestPayTime`\n    function setTimelock(uint _newTimeLock) onlyOwner {\n        if (_newTimeLock < absoluteMinTimeLock) throw;\n        timeLock = _newTimeLock;\n    }\n\n    /// @notice `onlyOwner` Changes the maximum number of seconds\n    /// `securityGuard` can delay a payment\n    /// @param _maxSecurityGuardDelay The new maximum delay in seconds that\n    ///  `securityGuard` can delay the payment's execution in total\n    function setMaxSecurityGuardDelay(uint _maxSecurityGuardDelay) onlyOwner {\n        maxSecurityGuardDelay = _maxSecurityGuardDelay;\n    }\n}\n",
  "sourcePath": "/Users/kamescg/Documents/Projects/openSource/dex/code/contracts/Vault.sol",
  "compiler": {
    "name": "solc",
    "version": "0.4.18+commit.9cf6e910.Emscripten.clang"
  },
  "schemaVersion": "1.0.1",
  "updatedAt": "2018-01-15T04:18:14.724Z"
}