{
  "contractName": "WalletSimple",
  "abi": [
    {
      "constant": false,
      "inputs": [
        {
          "name": "toAddress",
          "type": "address"
        },
        {
          "name": "value",
          "type": "uint256"
        },
        {
          "name": "tokenContractAddress",
          "type": "address"
        },
        {
          "name": "expireTime",
          "type": "uint256"
        },
        {
          "name": "sequenceId",
          "type": "uint256"
        },
        {
          "name": "signature",
          "type": "bytes"
        }
      ],
      "name": "sendMultiSigToken",
      "outputs": [],
      "payable": false,
      "stateMutability": "nonpayable",
      "type": "function"
    },
    {
      "constant": true,
      "inputs": [
        {
          "name": "",
          "type": "uint256"
        }
      ],
      "name": "signers",
      "outputs": [
        {
          "name": "",
          "type": "address"
        }
      ],
      "payable": false,
      "stateMutability": "view",
      "type": "function"
    },
    {
      "constant": false,
      "inputs": [
        {
          "name": "forwarderAddress",
          "type": "address"
        },
        {
          "name": "tokenContractAddress",
          "type": "address"
        }
      ],
      "name": "flushForwarderTokens",
      "outputs": [],
      "payable": false,
      "stateMutability": "nonpayable",
      "type": "function"
    },
    {
      "constant": false,
      "inputs": [
        {
          "name": "toAddress",
          "type": "address"
        },
        {
          "name": "value",
          "type": "uint256"
        },
        {
          "name": "data",
          "type": "bytes"
        },
        {
          "name": "expireTime",
          "type": "uint256"
        },
        {
          "name": "sequenceId",
          "type": "uint256"
        },
        {
          "name": "signature",
          "type": "bytes"
        }
      ],
      "name": "sendMultiSig",
      "outputs": [],
      "payable": false,
      "stateMutability": "nonpayable",
      "type": "function"
    },
    {
      "constant": true,
      "inputs": [
        {
          "name": "signer",
          "type": "address"
        }
      ],
      "name": "isSigner",
      "outputs": [
        {
          "name": "",
          "type": "bool"
        }
      ],
      "payable": false,
      "stateMutability": "view",
      "type": "function"
    },
    {
      "constant": true,
      "inputs": [],
      "name": "getNextSequenceId",
      "outputs": [
        {
          "name": "",
          "type": "uint256"
        }
      ],
      "payable": false,
      "stateMutability": "view",
      "type": "function"
    },
    {
      "constant": false,
      "inputs": [],
      "name": "createForwarder",
      "outputs": [
        {
          "name": "",
          "type": "address"
        }
      ],
      "payable": false,
      "stateMutability": "nonpayable",
      "type": "function"
    },
    {
      "constant": true,
      "inputs": [],
      "name": "safeMode",
      "outputs": [
        {
          "name": "",
          "type": "bool"
        }
      ],
      "payable": false,
      "stateMutability": "view",
      "type": "function"
    },
    {
      "constant": false,
      "inputs": [],
      "name": "activateSafeMode",
      "outputs": [],
      "payable": false,
      "stateMutability": "nonpayable",
      "type": "function"
    },
    {
      "inputs": [
        {
          "name": "allowedSigners",
          "type": "address[]"
        }
      ],
      "payable": false,
      "stateMutability": "nonpayable",
      "type": "constructor"
    },
    {
      "payable": true,
      "stateMutability": "payable",
      "type": "fallback"
    },
    {
      "anonymous": false,
      "inputs": [
        {
          "indexed": false,
          "name": "from",
          "type": "address"
        },
        {
          "indexed": false,
          "name": "value",
          "type": "uint256"
        },
        {
          "indexed": false,
          "name": "data",
          "type": "bytes"
        }
      ],
      "name": "Deposited",
      "type": "event"
    },
    {
      "anonymous": false,
      "inputs": [
        {
          "indexed": false,
          "name": "msgSender",
          "type": "address"
        }
      ],
      "name": "SafeModeActivated",
      "type": "event"
    },
    {
      "anonymous": false,
      "inputs": [
        {
          "indexed": false,
          "name": "msgSender",
          "type": "address"
        },
        {
          "indexed": false,
          "name": "otherSigner",
          "type": "address"
        },
        {
          "indexed": false,
          "name": "operation",
          "type": "bytes32"
        },
        {
          "indexed": false,
          "name": "toAddress",
          "type": "address"
        },
        {
          "indexed": false,
          "name": "value",
          "type": "uint256"
        },
        {
          "indexed": false,
          "name": "data",
          "type": "bytes"
        }
      ],
      "name": "Transacted",
      "type": "event"
    }
  ],
  "bytecode": "0x60606040526000600160006101000a81548160ff021916908315150217905550341561002a57600080fd5b60405161155b38038061155b833981016040528080518201919050506003815114151561005657600080fd5b806000908051906020019061006c929190610073565b5050610140565b8280548282559060005260206000209081019282156100ec579160200282015b828111156100eb5782518260006101000a81548173ffffffffffffffffffffffffffffffffffffffff021916908373ffffffffffffffffffffffffffffffffffffffff16021790555091602001919060010190610093565b5b5090506100f991906100fd565b5090565b61013d91905b8082111561013957600081816101000a81549073ffffffffffffffffffffffffffffffffffffffff021916905550600101610103565b5090565b90565b61140c8061014f6000396000f300606060405260043610610099576000357c0100000000000000000000000000000000000000000000000000000000900463ffffffff1680630dcd7a6c146101335780632079fb9a146101e95780632da034091461024c57806339125215146102a45780637df73e271461037e578063a0b7967b146103cf578063a68a76cc146103f8578063abe3219c1461044d578063fc0f392d1461047a575b6000341115610131577f6e89d517057028190560dd200cf6bf792842861353d1173761dfa362e1c133f03334600036604051808573ffffffffffffffffffffffffffffffffffffffff1673ffffffffffffffffffffffffffffffffffffffff16815260200184815260200180602001828103825284848281815260200192508082843782019150509550505050505060405180910390a15b005b341561013e57600080fd5b6101e7600480803573ffffffffffffffffffffffffffffffffffffffff1690602001909190803590602001909190803573ffffffffffffffffffffffffffffffffffffffff1690602001909190803590602001909190803590602001909190803590602001908201803590602001908080601f0160208091040260200160405190810160405280939291908181526020018383808284378201915050505050509190505061048f565b005b34156101f457600080fd5b61020a6004808035906020019091905050610668565b604051808273ffffffffffffffffffffffffffffffffffffffff1673ffffffffffffffffffffffffffffffffffffffff16815260200191505060405180910390f35b341561025757600080fd5b6102a2600480803573ffffffffffffffffffffffffffffffffffffffff1690602001909190803573ffffffffffffffffffffffffffffffffffffffff169060200190919050506106a7565b005b34156102af57600080fd5b61037c600480803573ffffffffffffffffffffffffffffffffffffffff1690602001909190803590602001909190803590602001908201803590602001908080601f0160208091040260200160405190810160405280939291908181526020018383808284378201915050505050509190803590602001909190803590602001909190803590602001908201803590602001908080601f01602080910402602001604051908101604052809392919081815260200183838082843782019150505050505091905050610773565b005b341561038957600080fd5b6103b5600480803573ffffffffffffffffffffffffffffffffffffffff16906020019091905050610a72565b604051808215151515815260200191505060405180910390f35b34156103da57600080fd5b6103e2610b16565b6040518082815260200191505060405180910390f35b341561040357600080fd5b61040b610b70565b604051808273ffffffffffffffffffffffffffffffffffffffff1673ffffffffffffffffffffffffffffffffffffffff16815260200191505060405180910390f35b341561045857600080fd5b610460610b95565b604051808215151515815260200191505060405180910390f35b341561048557600080fd5b61048d610ba8565b005b60008061049b33610a72565b15156104a657600080fd5b878787878760405180807f45524332300000000000000000000000000000000000000000000000000000008152506005018673ffffffffffffffffffffffffffffffffffffffff1673ffffffffffffffffffffffffffffffffffffffff166c010000000000000000000000000281526014018581526020018473ffffffffffffffffffffffffffffffffffffffff1673ffffffffffffffffffffffffffffffffffffffff166c0100000000000000000000000002815260140183815260200182815260200195505050505050604051809103902091506105898883858888610c3b565b508590508073ffffffffffffffffffffffffffffffffffffffff1663a9059cbb89896000604051602001526040518363ffffffff167c0100000000000000000000000000000000000000000000000000000000028152600401808373ffffffffffffffffffffffffffffffffffffffff1673ffffffffffffffffffffffffffffffffffffffff16815260200182815260200192505050602060405180830381600087803b151561063857600080fd5b6102c65a03f1151561064957600080fd5b50505060405180519050151561065e57600080fd5b5050505050505050565b60008181548110151561067757fe5b90600052602060002090016000915054906101000a900473ffffffffffffffffffffffffffffffffffffffff1681565b60006106b233610a72565b15156106bd57600080fd5b8290508073ffffffffffffffffffffffffffffffffffffffff16633ef13367836040518263ffffffff167c0100000000000000000000000000000000000000000000000000000000028152600401808273ffffffffffffffffffffffffffffffffffffffff1673ffffffffffffffffffffffffffffffffffffffff168152602001915050600060405180830381600087803b151561075a57600080fd5b6102c65a03f1151561076b57600080fd5b505050505050565b60008061077f33610a72565b151561078a57600080fd5b878787878760405180807f45544845520000000000000000000000000000000000000000000000000000008152506005018673ffffffffffffffffffffffffffffffffffffffff1673ffffffffffffffffffffffffffffffffffffffff166c0100000000000000000000000002815260140185815260200184805190602001908083835b602083101515610833578051825260208201915060208101905060208303925061080e565b6001836020036101000a038019825116818451168082178552505050505050905001838152602001828152602001955050505050506040518091039020915061087f8883858888610c3b565b90508773ffffffffffffffffffffffffffffffffffffffff16878760405180828051906020019080838360005b838110156108c75780820151818401526020810190506108ac565b50505050905090810190601f1680156108f45780820380516001836020036101000a031916815260200191505b5091505060006040518083038185876187965a03f192505050151561091857600080fd5b7f59bed9ab5d78073465dd642a9e3e76dfdb7d53bcae9d09df7d0b8f5234d5a8063382848b8b8b604051808773ffffffffffffffffffffffffffffffffffffffff1673ffffffffffffffffffffffffffffffffffffffff1681526020018673ffffffffffffffffffffffffffffffffffffffff1673ffffffffffffffffffffffffffffffffffffffff16815260200185600019166000191681526020018473ffffffffffffffffffffffffffffffffffffffff1673ffffffffffffffffffffffffffffffffffffffff16815260200183815260200180602001828103825283818151815260200191508051906020019080838360005b83811015610a29578082015181840152602081019050610a0e565b50505050905090810190601f168015610a565780820380516001836020036101000a031916815260200191505b5097505050505050505060405180910390a15050505050505050565b600080600090505b600080549050811015610b0b578273ffffffffffffffffffffffffffffffffffffffff16600082815481101515610aad57fe5b906000526020600020900160009054906101000a900473ffffffffffffffffffffffffffffffffffffffff1673ffffffffffffffffffffffffffffffffffffffff161415610afe5760019150610b10565b8080600101915050610a7a565b600091505b50919050565b6000806000809150600090505b600a811015610b655781600282600a81101515610b3c57fe5b01541115610b5857600281600a81101515610b5357fe5b015491505b8080600101915050610b23565b600182019250505090565b6000610b7a610e90565b604051809103906000f0801515610b9057600080fd5b905090565b600160009054906101000a900460ff1681565b610bb133610a72565b1515610bbc57600080fd5b60018060006101000a81548160ff0219169083151502179055507f0909e8f76a4fd3e970f2eaef56c0ee6dfaf8b87c5b8d3f56ffce78e825a9115733604051808273ffffffffffffffffffffffffffffffffffffffff1673ffffffffffffffffffffffffffffffffffffffff16815260200191505060405180910390a1565b600080610c488686610ce6565b9050600160009054906101000a900460ff168015610c6c5750610c6a87610a72565b155b15610c7657600080fd5b42841015610c8357600080fd5b610c8c83610db9565b610c9581610a72565b1515610ca057600080fd5b3373ffffffffffffffffffffffffffffffffffffffff168173ffffffffffffffffffffffffffffffffffffffff161415610cd957600080fd5b8091505095945050505050565b60008060008060418551141515610cfc57600080fd5b602085015192506040850151915060ff6041860151169050601b8160ff161015610d2757601b810190505b600186828585604051600081526020016040526000604051602001526040518085600019166000191681526020018460ff1660ff16815260200183600019166000191681526020018260001916600019168152602001945050505050602060405160208103908084039060008661646e5a03f11515610da557600080fd5b505060206040510351935050505092915050565b600080610dc533610a72565b1515610dd057600080fd5b60009150600090505b600a811015610e385782600282600a81101515610df257fe5b01541415610dff57600080fd5b600282600a81101515610e0e57fe5b0154600282600a81101515610e1f57fe5b01541015610e2b578091505b8080600101915050610dd9565b600282600a81101515610e4757fe5b0154831015610e5557600080fd5b612710600283600a81101515610e6757fe5b015401831115610e7657600080fd5b82600283600a81101515610e8657fe5b0181905550505050565b60405161054080610ea18339019056006060604052341561000f57600080fd5b336000806101000a81548173ffffffffffffffffffffffffffffffffffffffff021916908373ffffffffffffffffffffffffffffffffffffffff1602179055506104e28061005e6000396000f300606060405260043610610056576000357c0100000000000000000000000000000000000000000000000000000000900463ffffffff168062821de3146101475780633ef133671461019c5780636b9f96ea146101d5575b6000809054906101000a900473ffffffffffffffffffffffffffffffffffffffff1673ffffffffffffffffffffffffffffffffffffffff166108fc349081150290604051600060405180830381858888f1935050505015156100b757600080fd5b7f69b31548dea9b3b707b4dff357d326e3e9348b24e7a6080a218a6edeeec48f9b3334600036604051808573ffffffffffffffffffffffffffffffffffffffff1673ffffffffffffffffffffffffffffffffffffffff16815260200184815260200180602001828103825284848281815260200192508082843782019150509550505050505060405180910390a1005b341561015257600080fd5b61015a6101ea565b604051808273ffffffffffffffffffffffffffffffffffffffff1673ffffffffffffffffffffffffffffffffffffffff16815260200191505060405180910390f35b34156101a757600080fd5b6101d3600480803573ffffffffffffffffffffffffffffffffffffffff1690602001909190505061020f565b005b34156101e057600080fd5b6101e861043c565b005b6000809054906101000a900473ffffffffffffffffffffffffffffffffffffffff1681565b60008060008060009054906101000a900473ffffffffffffffffffffffffffffffffffffffff1673ffffffffffffffffffffffffffffffffffffffff163373ffffffffffffffffffffffffffffffffffffffff1614151561026f57600080fd5b8392503091508273ffffffffffffffffffffffffffffffffffffffff166370a08231836000604051602001526040518263ffffffff167c0100000000000000000000000000000000000000000000000000000000028152600401808273ffffffffffffffffffffffffffffffffffffffff1673ffffffffffffffffffffffffffffffffffffffff168152602001915050602060405180830381600087803b151561031857600080fd5b6102c65a03f1151561032957600080fd5b505050604051805190509050600081141561034357610436565b8273ffffffffffffffffffffffffffffffffffffffff1663a9059cbb6000809054906101000a900473ffffffffffffffffffffffffffffffffffffffff16836000604051602001526040518363ffffffff167c0100000000000000000000000000000000000000000000000000000000028152600401808373ffffffffffffffffffffffffffffffffffffffff1673ffffffffffffffffffffffffffffffffffffffff16815260200182815260200192505050602060405180830381600087803b151561040f57600080fd5b6102c65a03f1151561042057600080fd5b50505060405180519050151561043557600080fd5b5b50505050565b6000809054906101000a900473ffffffffffffffffffffffffffffffffffffffff1673ffffffffffffffffffffffffffffffffffffffff166108fc3073ffffffffffffffffffffffffffffffffffffffff16319081150290604051600060405180830381858888f1935050505015156104b457600080fd5b5600a165627a7a723058208e3a024dda478a6b7dcbf7d7a4fa05b9d0ac3e8f15c2ca1fa23ddd19e920ac490029a165627a7a72305820e2a1fce2550655733fbb977ffe0258287ec6628e24d802686077da7f379dbebd0029",
  "source": "pragma solidity ^0.4.18;\nimport \"./Forwarder.sol\";\nimport \"./ERC20Interface.sol\";\n/**\n *\n * WalletSimple\n * ============\n *\n * Basic multi-signer wallet designed for use in a co-signing environment where 2 signatures are required to move funds.\n * Typically used in a 2-of-3 signing configuration. Uses ecrecover to allow for 2 signatures in a single transaction.\n *\n * The first signature is created on the operation hash (see Data Formats) and passed to sendMultiSig/sendMultiSigToken\n * The signer is determined by verifyMultiSig().\n *\n * The second signature is created by the submitter of the transaction and determined by msg.signer.\n *\n * Data Formats\n * ============\n *\n * The signature is created with ethereumjs-util.ecsign(operationHash).\n * Like the eth_sign RPC call, it packs the values as a 65-byte array of [r, s, v].\n * Unlike eth_sign, the message is not prefixed.\n *\n * The operationHash the result of keccak256(prefix, toAddress, value, data, expireTime).\n * For ether transactions, `prefix` is \"ETHER\".\n * For token transaction, `prefix` is \"ERC20\" and `data` is the tokenContractAddress.\n *\n *\n */\ncontract WalletSimple {\n  // Events\n  event Deposited(address from, uint value, bytes data);\n  event SafeModeActivated(address msgSender);\n  event Transacted(\n    address msgSender, // Address of the sender of the message initiating the transaction\n    address otherSigner, // Address of the signer (second signature) used to initiate the transaction\n    bytes32 operation, // Operation hash (see Data Formats)\n    address toAddress, // The address the transaction was sent to\n    uint value, // Amount of Wei sent to the address\n    bytes data // Data sent when invoking the transaction\n  );\n\n  // Public fields\n  address[] public signers; // The addresses that can co-sign transactions on the wallet\n  bool public safeMode = false; // When active, wallet may only send to signer addresses\n\n  // Internal fields\n  uint constant SEQUENCE_ID_WINDOW_SIZE = 10;\n  uint[10] recentSequenceIds;\n\n  /**\n   * Set up a simple multi-sig wallet by specifying the signers allowed to be used on this wallet.\n   * 2 signers will be required to send a transaction from this wallet.\n   * Note: The sender is NOT automatically added to the list of signers.\n   * Signers CANNOT be changed once they are set\n   *\n   * @param allowedSigners An array of signers on the wallet\n   */\n  function WalletSimple(address[] allowedSigners) public {\n    if (allowedSigners.length != 3) {\n      // Invalid number of signers\n      revert();\n    }\n    signers = allowedSigners;\n  }\n\n  /**\n   * Determine if an address is a signer on this wallet\n   * @param signer address to check\n   * returns boolean indicating whether address is signer or not\n   */\n  function isSigner(address signer) public view returns (bool) {\n    // Iterate through all signers on the wallet and\n    for (uint i = 0; i < signers.length; i++) {\n      if (signers[i] == signer) {\n        return true;\n      }\n    }\n    return false;\n  }\n\n  /**\n   * Modifier that will execute internal code block only if the sender is an authorized signer on this wallet\n   */\n  modifier onlySigner {\n    if (!isSigner(msg.sender)) {\n      revert();\n    }\n    _;\n  }\n\n  /**\n   * Gets called when a transaction is received without calling a method\n   */\n  function() public payable {\n    if (msg.value > 0) {\n      // Fire deposited event if we are receiving funds\n      Deposited(msg.sender, msg.value, msg.data);\n    }\n  }\n\n  /**\n   * Create a new contract (and also address) that forwards funds to this contract\n   * returns address of newly created forwarder address\n   */\n  function createForwarder() public returns (address) {\n    return new Forwarder();\n  }\n\n  /**\n   * Execute a multi-signature transaction from this wallet using 2 signers: one from msg.sender and the other from ecrecover.\n   * Sequence IDs are numbers starting from 1. They are used to prevent replay attacks and may not be repeated.\n   *\n   * @param toAddress the destination address to send an outgoing transaction\n   * @param value the amount in Wei to be sent\n   * @param data the data to send to the toAddress when invoking the transaction\n   * @param expireTime the number of seconds since 1970 for which this transaction is valid\n   * @param sequenceId the unique sequence id obtainable from getNextSequenceId\n   * @param signature see Data Formats\n   */\n  function sendMultiSig(\n      address toAddress,\n      uint value,\n      bytes data,\n      uint expireTime,\n      uint sequenceId,\n      bytes signature\n  ) public onlySigner {\n    // Verify the other signer\n    var operationHash = keccak256(\"ETHER\", toAddress, value, data, expireTime, sequenceId);\n    \n    var otherSigner = verifyMultiSig(toAddress, operationHash, signature, expireTime, sequenceId);\n\n    // Success, send the transaction\n    if (!(toAddress.call.value(value)(data))) {\n      // Failed executing transaction\n      revert();\n    }\n    Transacted(msg.sender, otherSigner, operationHash, toAddress, value, data);\n  }\n  \n  /**\n   * Execute a multi-signature token transfer from this wallet using 2 signers: one from msg.sender and the other from ecrecover.\n   * Sequence IDs are numbers starting from 1. They are used to prevent replay attacks and may not be repeated.\n   *\n   * @param toAddress the destination address to send an outgoing transaction\n   * @param value the amount in tokens to be sent\n   * @param tokenContractAddress the address of the erc20 token contract\n   * @param expireTime the number of seconds since 1970 for which this transaction is valid\n   * @param sequenceId the unique sequence id obtainable from getNextSequenceId\n   * @param signature see Data Formats\n   */\n  function sendMultiSigToken(\n      address toAddress,\n      uint value,\n      address tokenContractAddress,\n      uint expireTime,\n      uint sequenceId,\n      bytes signature\n  ) public onlySigner {\n    // Verify the other signer\n    var operationHash = keccak256(\"ERC20\", toAddress, value, tokenContractAddress, expireTime, sequenceId);\n    \n    verifyMultiSig(toAddress, operationHash, signature, expireTime, sequenceId);\n    \n    ERC20Interface instance = ERC20Interface(tokenContractAddress);\n    if (!instance.transfer(toAddress, value)) {\n        revert();\n    }\n  }\n  \n  /**\n   * Execute a token flush from one of the forwarder addresses. This transfer needs only a single signature and can be done by any signer\n   *\n   * @param forwarderAddress the address of the forwarder address to flush the tokens from\n   * @param tokenContractAddress the address of the erc20 token contract\n   */\n  function flushForwarderTokens(\n    address forwarderAddress, \n    address tokenContractAddress\n  ) public onlySigner {\n    Forwarder forwarder = Forwarder(forwarderAddress);\n    forwarder.flushTokens(tokenContractAddress);\n  }\n\n  /**\n   * Do common multisig verification for both eth sends and erc20token transfers\n   *\n   * @param toAddress the destination address to send an outgoing transaction\n   * @param operationHash see Data Formats\n   * @param signature see Data Formats\n   * @param expireTime the number of seconds since 1970 for which this transaction is valid\n   * @param sequenceId the unique sequence id obtainable from getNextSequenceId\n   * returns address that has created the signature\n   */\n  function verifyMultiSig(\n      address toAddress,\n      bytes32 operationHash,\n      bytes signature,\n      uint expireTime,\n      uint sequenceId\n  ) private returns (address) {\n\n    var otherSigner = recoverAddressFromSignature(operationHash, signature);\n\n    // Verify if we are in safe mode. In safe mode, the wallet can only send to signers\n    if (safeMode && !isSigner(toAddress)) {\n      // We are in safe mode and the toAddress is not a signer. Disallow!\n      revert();\n    }\n    // Verify that the transaction has not expired\n    if (expireTime < block.timestamp) {\n      // Transaction expired\n      revert();\n    }\n\n    // Try to insert the sequence ID. Will revert if the sequence id was invalid\n    tryInsertSequenceId(sequenceId);\n\n    if (!isSigner(otherSigner)) {\n      // Other signer not on this wallet or operation does not match arguments\n      revert();\n    }\n    if (otherSigner == msg.sender) {\n      // Cannot approve own transaction\n      revert();\n    }\n\n    return otherSigner;\n  }\n\n  /**\n   * Irrevocably puts contract into safe mode. When in this mode, transactions may only be sent to signing addresses.\n   */\n  function activateSafeMode() public onlySigner {\n    safeMode = true;\n    SafeModeActivated(msg.sender);\n  }\n\n  /**\n   * Gets signer's address using ecrecover\n   * @param operationHash see Data Formats\n   * @param signature see Data Formats\n   * returns address recovered from the signature\n   */\n  function recoverAddressFromSignature(\n    bytes32 operationHash,\n    bytes signature\n  ) private pure returns (address) {\n    if (signature.length != 65) {\n      revert();\n    }\n    // We need to unpack the signature, which is given as an array of 65 bytes (like eth.sign)\n    bytes32 r;\n    bytes32 s;\n    uint8 v;\n    assembly {\n      r := mload(add(signature, 32))\n      s := mload(add(signature, 64))\n      v := and(mload(add(signature, 65)), 255)\n    }\n    if (v < 27) {\n      v += 27; // Ethereum versions are 27 or 28 as opposed to 0 or 1 which is submitted by some signing libs\n    }\n    return ecrecover(operationHash, v, r, s);\n  }\n\n  /**\n   * Verify that the sequence id has not been used before and inserts it. Throws if the sequence ID was not accepted.\n   * We collect a window of up to 10 recent sequence ids, and allow any sequence id that is not in the window and\n   * greater than the minimum element in the window.\n   * @param sequenceId to insert into array of stored ids\n   */\n  function tryInsertSequenceId(uint sequenceId) private onlySigner {\n    // Keep a pointer to the lowest value element in the window\n    uint lowestValueIndex = 0;\n    for (uint i = 0; i < SEQUENCE_ID_WINDOW_SIZE; i++) {\n      if (recentSequenceIds[i] == sequenceId) {\n        // This sequence ID has been used before. Disallow!\n        revert();\n      }\n      if (recentSequenceIds[i] < recentSequenceIds[lowestValueIndex]) {\n        lowestValueIndex = i;\n      }\n    }\n    if (sequenceId < recentSequenceIds[lowestValueIndex]) {\n      // The sequence ID being used is lower than the lowest value in the window\n      // so we cannot accept it as it may have been used before\n      revert();\n    }\n    if (sequenceId > (recentSequenceIds[lowestValueIndex] + 10000)) {\n      // Block sequence IDs which are much higher than the lowest value\n      // This prevents people blocking the contract by using very large sequence IDs quickly\n      revert();\n    }\n    recentSequenceIds[lowestValueIndex] = sequenceId;\n  }\n\n  /**\n   * Gets the next available sequence ID for signing when using executeAndConfirm\n   * returns the sequenceId one higher than the highest currently stored\n   */\n  function getNextSequenceId() public view returns (uint) {\n    uint highestSequenceId = 0;\n    for (uint i = 0; i < SEQUENCE_ID_WINDOW_SIZE; i++) {\n      if (recentSequenceIds[i] > highestSequenceId) {\n        highestSequenceId = recentSequenceIds[i];\n      }\n    }\n    return highestSequenceId + 1;\n  }\n}\n",
  "sourcePath": "/Users/kamescg/Documents/Projects/openSource/dex/code/contracts/multisig/WalletSimple.sol",
  "compiler": {
    "name": "solc",
    "version": "0.4.18+commit.9cf6e910.Emscripten.clang"
  },
  "schemaVersion": "1.0.1",
  "updatedAt": "2018-01-15T04:18:14.729Z"
}